{
  "_format": "hh-sol-artifact-1",
  "contractName": "BuyMeACoffee",
  "sourceName": "contracts/BuyMeACoffee.sol",
  "abi": [
    {
      "inputs": [],
      "stateMutability": "nonpayable",
      "type": "constructor"
    },
    {
      "anonymous": false,
      "inputs": [
        {
          "indexed": true,
          "internalType": "address",
          "name": "from",
          "type": "address"
        },
        {
          "indexed": false,
          "internalType": "uint256",
          "name": "timestamp",
          "type": "uint256"
        },
        {
          "indexed": false,
          "internalType": "string",
          "name": "name",
          "type": "string"
        },
        {
          "indexed": false,
          "internalType": "string",
          "name": "message",
          "type": "string"
        }
      ],
      "name": "NewMemo",
      "type": "event"
    },
    {
      "inputs": [
        {
          "internalType": "string",
          "name": "_name",
          "type": "string"
        },
        {
          "internalType": "string",
          "name": "_message",
          "type": "string"
        }
      ],
      "name": "buyCoffee",
      "outputs": [],
      "stateMutability": "payable",
      "type": "function"
    },
    {
      "inputs": [],
      "name": "getMemos",
      "outputs": [
        {
          "components": [
            {
              "internalType": "address",
              "name": "from",
              "type": "address"
            },
            {
              "internalType": "uint256",
              "name": "timestamp",
              "type": "uint256"
            },
            {
              "internalType": "string",
              "name": "name",
              "type": "string"
            },
            {
              "internalType": "string",
              "name": "message",
              "type": "string"
            }
          ],
          "internalType": "struct BuyMeACoffee.Memo[]",
          "name": "",
          "type": "tuple[]"
        }
      ],
      "stateMutability": "view",
      "type": "function"
    },
    {
      "inputs": [],
      "name": "getWithdrawalOwner",
      "outputs": [
        {
          "internalType": "address",
          "name": "",
          "type": "address"
        }
      ],
      "stateMutability": "view",
      "type": "function"
    },
    {
      "inputs": [
        {
          "internalType": "address",
          "name": "_withdrawalOwner",
          "type": "address"
        }
      ],
      "name": "updateWithdrawalOwner",
      "outputs": [],
      "stateMutability": "nonpayable",
      "type": "function"
    },
    {
      "inputs": [],
      "name": "withdrawTips",
      "outputs": [],
      "stateMutability": "nonpayable",
      "type": "function"
    }
  ],
  "bytecode": "0x608060405234801561001057600080fd5b5033600160006101000a81548173ffffffffffffffffffffffffffffffffffffffff021916908373ffffffffffffffffffffffffffffffffffffffff16021790555033600260006101000a81548173ffffffffffffffffffffffffffffffffffffffff021916908373ffffffffffffffffffffffffffffffffffffffff160217905550610d65806100a26000396000f3fe60806040526004361061004a5760003560e01c8063204206e11461004f5780633aaa74b21461006b5780635e166bec14610082578063865c5172146100ad578063f113c16d146100d8575b600080fd5b610069600480360381019061006491906107a5565b610101565b005b34801561007757600080fd5b50610080610289565b005b34801561008e57600080fd5b506100976102eb565b6040516100a491906109f8565b60405180910390f35b3480156100b957600080fd5b506100c26103a5565b6040516100cf9190610a13565b60405180910390f35b3480156100e457600080fd5b506100ff60048036038101906100fa919061077c565b610588565b005b60003411610144576040517f08c379a000000000000000000000000000000000000000000000000000000000815260040161013b90610a35565b60405180910390fd5b600060405180608001604052803373ffffffffffffffffffffffffffffffffffffffff16815260200142815260200184815260200183815250908060018154018082558091505060019003906000526020600020906004020160009091909190915060008201518160000160006101000a81548173ffffffffffffffffffffffffffffffffffffffff021916908373ffffffffffffffffffffffffffffffffffffffff16021790555060208201518160010155604082015181600201908051906020019061021392919061065c565b50606082015181600301908051906020019061023092919061065c565b5050503373ffffffffffffffffffffffffffffffffffffffff167fc56140e05f516509ae28110e0f72e17558a7561630dad2647c3ae87d986e365c42848460405161027d93929190610a75565b60405180910390a25050565b600260009054906101000a900473ffffffffffffffffffffffffffffffffffffffff1673ffffffffffffffffffffffffffffffffffffffff166108fc479081150290604051600060405180830381858888f193505050506102e957600080fd5b565b60003373ffffffffffffffffffffffffffffffffffffffff16600160009054906101000a900473ffffffffffffffffffffffffffffffffffffffff1673ffffffffffffffffffffffffffffffffffffffff161461037d576040517f08c379a000000000000000000000000000000000000000000000000000000000815260040161037490610a55565b60405180910390fd5b600260009054906101000a900473ffffffffffffffffffffffffffffffffffffffff16905090565b60606000805480602002602001604051908101604052809291908181526020016000905b8282101561057f57838290600052602060002090600402016040518060800160405290816000820160009054906101000a900473ffffffffffffffffffffffffffffffffffffffff1673ffffffffffffffffffffffffffffffffffffffff1673ffffffffffffffffffffffffffffffffffffffff1681526020016001820154815260200160028201805461045c90610bf4565b80601f016020809104026020016040519081016040528092919081815260200182805461048890610bf4565b80156104d55780601f106104aa576101008083540402835291602001916104d5565b820191906000526020600020905b8154815290600101906020018083116104b857829003601f168201915b505050505081526020016003820180546104ee90610bf4565b80601f016020809104026020016040519081016040528092919081815260200182805461051a90610bf4565b80156105675780601f1061053c57610100808354040283529160200191610567565b820191906000526020600020905b81548152906001019060200180831161054a57829003601f168201915b505050505081525050815260200190600101906103c9565b50505050905090565b3373ffffffffffffffffffffffffffffffffffffffff16600160009054906101000a900473ffffffffffffffffffffffffffffffffffffffff1673ffffffffffffffffffffffffffffffffffffffff1614610618576040517f08c379a000000000000000000000000000000000000000000000000000000000815260040161060f90610a55565b60405180910390fd5b80600260006101000a81548173ffffffffffffffffffffffffffffffffffffffff021916908373ffffffffffffffffffffffffffffffffffffffff16021790555050565b82805461066890610bf4565b90600052602060002090601f01602090048101928261068a57600085556106d1565b82601f106106a357805160ff19168380011785556106d1565b828001600101855582156106d1579182015b828111156106d05782518255916020019190600101906106b5565b5b5090506106de91906106e2565b5090565b5b808211156106fb5760008160009055506001016106e3565b5090565b600061071261070d84610adf565b610aba565b90508281526020810184848401111561072a57600080fd5b610735848285610bb2565b509392505050565b60008135905061074c81610d18565b92915050565b600082601f83011261076357600080fd5b81356107738482602086016106ff565b91505092915050565b60006020828403121561078e57600080fd5b600061079c8482850161073d565b91505092915050565b600080604083850312156107b857600080fd5b600083013567ffffffffffffffff8111156107d257600080fd5b6107de85828601610752565b925050602083013567ffffffffffffffff8111156107fb57600080fd5b61080785828601610752565b9150509250929050565b600061081d8383610970565b905092915050565b61082e81610b76565b82525050565b61083d81610b76565b82525050565b600061084e82610b20565b6108588185610b43565b93508360208202850161086a85610b10565b8060005b858110156108a657848403895281516108878582610811565b945061089283610b36565b925060208a0199505060018101905061086e565b50829750879550505050505092915050565b60006108c382610b2b565b6108cd8185610b54565b93506108dd818560208601610bc1565b6108e681610cb5565b840191505092915050565b60006108fc82610b2b565b6109068185610b65565b9350610916818560208601610bc1565b61091f81610cb5565b840191505092915050565b6000610937601b83610b65565b915061094282610cc6565b602082019050919050565b600061095a602083610b65565b915061096582610cef565b602082019050919050565b60006080830160008301516109886000860182610825565b50602083015161099b60208601826109da565b50604083015184820360408601526109b382826108b8565b915050606083015184820360608601526109cd82826108b8565b9150508091505092915050565b6109e381610ba8565b82525050565b6109f281610ba8565b82525050565b6000602082019050610a0d6000830184610834565b92915050565b60006020820190508181036000830152610a2d8184610843565b905092915050565b60006020820190508181036000830152610a4e8161092a565b9050919050565b60006020820190508181036000830152610a6e8161094d565b9050919050565b6000606082019050610a8a60008301866109e9565b8181036020830152610a9c81856108f1565b90508181036040830152610ab081846108f1565b9050949350505050565b6000610ac4610ad5565b9050610ad08282610c26565b919050565b6000604051905090565b600067ffffffffffffffff821115610afa57610af9610c86565b5b610b0382610cb5565b9050602081019050919050565b6000819050602082019050919050565b600081519050919050565b600081519050919050565b6000602082019050919050565b600082825260208201905092915050565b600082825260208201905092915050565b600082825260208201905092915050565b6000610b8182610b88565b9050919050565b600073ffffffffffffffffffffffffffffffffffffffff82169050919050565b6000819050919050565b82818337600083830152505050565b60005b83811015610bdf578082015181840152602081019050610bc4565b83811115610bee576000848401525b50505050565b60006002820490506001821680610c0c57607f821691505b60208210811415610c2057610c1f610c57565b5b50919050565b610c2f82610cb5565b810181811067ffffffffffffffff82111715610c4e57610c4d610c86565b5b80604052505050565b7f4e487b7100000000000000000000000000000000000000000000000000000000600052602260045260246000fd5b7f4e487b7100000000000000000000000000000000000000000000000000000000600052604160045260246000fd5b6000601f19601f8301169050919050565b7f63616e27742062757920636f6666656520776974682030206574680000000000600082015250565b7f4f776e61626c653a2063616c6c6572206973206e6f7420746865206f776e6572600082015250565b610d2181610b76565b8114610d2c57600080fd5b5056fea26469706673582212209270836bb71728ea3812a9177f23b71eece4abdb5e8453fc4b77747765f9795b64736f6c63430008040033",
  "linkReferences": {},
  "deployedLinkReferences": {}
}